{
  "contractName": "DollarAuction",
  "abi": [
    {
      "inputs": [],
      "payable": false,
      "stateMutability": "nonpayable",
      "type": "constructor"
    },
    {
      "payable": true,
      "stateMutability": "payable",
      "type": "fallback"
    },
    {
      "anonymous": false,
      "inputs": [
        {
          "indexed": false,
          "name": "accountAddress",
          "type": "address"
        },
        {
          "indexed": false,
          "name": "amount",
          "type": "uint256"
        },
        {
          "indexed": false,
          "name": "time",
          "type": "uint256"
        }
      ],
      "name": "LogBidMade",
      "type": "event"
    },
    {
      "anonymous": false,
      "inputs": [
        {
          "indexed": false,
          "name": "accountAddress",
          "type": "address"
        },
        {
          "indexed": false,
          "name": "amount",
          "type": "uint256"
        },
        {
          "indexed": false,
          "name": "time",
          "type": "uint256"
        }
      ],
      "name": "LogBidFailed",
      "type": "event"
    },
    {
      "anonymous": false,
      "inputs": [
        {
          "indexed": false,
          "name": "accountAddress",
          "type": "address"
        },
        {
          "indexed": false,
          "name": "amount",
          "type": "uint256"
        },
        {
          "indexed": false,
          "name": "time",
          "type": "uint256"
        },
        {
          "indexed": false,
          "name": "profit",
          "type": "uint256"
        }
      ],
      "name": "LogBidFinal",
      "type": "event"
    },
    {
      "anonymous": false,
      "inputs": [
        {
          "indexed": false,
          "name": "accountAddress",
          "type": "address"
        },
        {
          "indexed": false,
          "name": "amount",
          "type": "uint256"
        },
        {
          "indexed": false,
          "name": "time",
          "type": "uint256"
        }
      ],
      "name": "LogBidReturned",
      "type": "event"
    },
    {
      "anonymous": false,
      "inputs": [
        {
          "indexed": false,
          "name": "accountAddress",
          "type": "address"
        },
        {
          "indexed": false,
          "name": "amount",
          "type": "uint256"
        },
        {
          "indexed": false,
          "name": "time",
          "type": "uint256"
        }
      ],
      "name": "LogPayoutFailed",
      "type": "event"
    },
    {
      "anonymous": false,
      "inputs": [
        {
          "components": [
            {
              "name": "sender",
              "type": "address"
            },
            {
              "name": "amount",
              "type": "uint256"
            },
            {
              "name": "time",
              "type": "uint256"
            }
          ],
          "indexed": false,
          "name": "bid",
          "type": "tuple"
        }
      ],
      "name": "BidSaved",
      "type": "event"
    },
    {
      "constant": false,
      "inputs": [],
      "name": "bid",
      "outputs": [
        {
          "name": "success",
          "type": "bool"
        }
      ],
      "payable": true,
      "stateMutability": "payable",
      "type": "function"
    },
    {
      "constant": true,
      "inputs": [],
      "name": "getLastBidAmount",
      "outputs": [
        {
          "name": "lastBidAmount",
          "type": "uint256"
        }
      ],
      "payable": false,
      "stateMutability": "view",
      "type": "function"
    },
    {
      "constant": true,
      "inputs": [],
      "name": "getTotalBidded",
      "outputs": [
        {
          "name": "totalBidded",
          "type": "uint256"
        }
      ],
      "payable": false,
      "stateMutability": "view",
      "type": "function"
    },
    {
      "constant": true,
      "inputs": [],
      "name": "isBidFinal",
      "outputs": [
        {
          "name": "isFinal",
          "type": "bool"
        }
      ],
      "payable": false,
      "stateMutability": "view",
      "type": "function"
    },
    {
      "constant": true,
      "inputs": [],
      "name": "getTimeOfLastBid",
      "outputs": [
        {
          "name": "time",
          "type": "uint256"
        }
      ],
      "payable": false,
      "stateMutability": "view",
      "type": "function"
    },
    {
      "constant": true,
      "inputs": [],
      "name": "getMinBid",
      "outputs": [
        {
          "name": "minimumBid",
          "type": "uint256"
        }
      ],
      "payable": false,
      "stateMutability": "view",
      "type": "function"
    }
  ],
  "bytecode": "0x60606040526000600155603c6002556001600355662386f26fc100006004556000600555341561002e57600080fd5b620186a060008161003f9190610045565b506100cd565b815481835581811511610072576003028160030283600052602060002091820191016100719190610077565b5b505050565b6100ca91905b808211156100c657600080820160006101000a81549073ffffffffffffffffffffffffffffffffffffffff0219169055600182016000905560028201600090555060030161007d565b5090565b90565b61057c806100dc6000396000f300606060405260043610610078576000357c0100000000000000000000000000000000000000000000000000000000900463ffffffff1680631998aeef1461007d57806324f073ad1461009f578063288dd331146100c85780638cb39385146100f1578063a283c9c51461011a578063ee7c178614610143575b600080fd5b610085610170565b604051808215151515815260200191505060405180910390f35b34156100aa57600080fd5b6100b2610451565b6040518082815260200191505060405180910390f35b34156100d357600080fd5b6100db610490565b6040518082815260200191505060405180910390f35b34156100fc57600080fd5b61010461049a565b6040518082815260200191505060405180910390f35b341561012557600080fd5b61012d6104a4565b6040518082815260200191505060405180910390f35b341561014e57600080fd5b6101566104e4565b604051808215151515815260200191505060405180910390f35b6000806000806000803494506101846104a4565b93503392504291506004548511151561019c57600080fd5b6003548401851115156101ae57600080fd5b6060604051908101604052808473ffffffffffffffffffffffffffffffffffffffff1681526020018681526020014281525060006001548154811015156101f157fe5b906000526020600020906003020160008201518160000160006101000a81548173ffffffffffffffffffffffffffffffffffffffff021916908373ffffffffffffffffffffffffffffffffffffffff1602179055506020820151816001015560408201518160020155905050600180540160018190555084600554016005819055507f2910f1595943b843bea5ba03a84c2f17f57ad59fbf676336dd22c9cc17bacae2838684604051808473ffffffffffffffffffffffffffffffffffffffff1673ffffffffffffffffffffffffffffffffffffffff168152602001838152602001828152602001935050505060405180910390a16102ee6104e4565b1561044457600554905060006005819055508273ffffffffffffffffffffffffffffffffffffffff166108fc829081150290604051600060405180830381858888f1935050505015156103be57806005819055507f427c9aca73da774641271012c0dacbce66b29db72bbaa9f074ff9df5d77e7711838684604051808473ffffffffffffffffffffffffffffffffffffffff1673ffffffffffffffffffffffffffffffffffffffff168152602001838152602001828152602001935050505060405180910390a160009550610449565b60006001819055507ff9fafb59f776e1d72234f8e07f9c3586cf72cd6078c50b636dae414922d3752c838684600554604051808573ffffffffffffffffffffffffffffffffffffffff1673ffffffffffffffffffffffffffffffffffffffff16815260200184815260200183815260200182815260200194505050505060405180910390a15b600195505b505050505090565b60008060015414156104655742905061048d565b6000600180540381548110151561047857fe5b90600052602060002090600302016002015490505b90565b6000600554905090565b6000600454905090565b60008060015414156104b957600090506104e1565b600060018054038154811015156104cc57fe5b90600052602060002090600302016001015490505b90565b6000600180541115156104fa576000905061054d565b600254600060026001540381548110151561051157fe5b9060005260206000209060030201600201546000600180540381548110151561053657fe5b906000526020600020906003020160020154031190505b905600a165627a7a723058208e8968fcd0dfb5d921a7745e51595d55d15ee6e649b7c1eed689631841ac2a570029",
  "source": "pragma solidity ^0.4.17;\n\ncontract DollarAuction {\n\n  struct Bid {\n    address sender;\n    uint amount;\n    uint time;\n  }\n\n  Bid[] bids;\n  uint bidsPtr = 0;\n  uint interval = 60;\n  uint step = 1;\n  uint minBid = 10000000000000000;\n  uint total = 0;\n\n  event LogBidMade(address accountAddress, uint amount, uint time);\n  event LogBidFailed(address accountAddress, uint amount, uint time);\n  event LogBidFinal(address accountAddress, uint amount, uint time, uint profit);\n  event LogBidReturned(address accountAddress, uint amount, uint time);\n  event LogPayoutFailed(address accountAddress, uint amount, uint time);\n  event BidSaved(Bid bid);\n\n  function DollarAuction() {\n    bids.length = 100000;\n  }\n\n  function bid() public payable returns (bool success) {\n      //if (bidsPtr == bids.length -1) bids.length = bids.length + 100;\n      uint amount = msg.value;\n      uint lastBidAmount = getLastBidAmount();\n      address sender = msg.sender;\n      uint time = now;\n      require(amount > minBid);\n      require(amount > (lastBidAmount + step));\n      bids[bidsPtr] = Bid({time: now, sender: sender, amount: amount});\n      bidsPtr = bidsPtr + 1;\n      total = total + amount;\n      LogBidMade(sender, amount, time);\n      if (isBidFinal()) {\n        uint payout = total;\n        total = 0;\n        if (!sender.send(payout)) {\n          total = payout;\n          LogPayoutFailed(sender, amount, time);\n          return false;\n        }\n        bidsPtr = 0;\n        LogBidFinal(sender, amount, time, total);\n      }\n      return true;\n  }\n\n  function getLastBidAmount() constant public returns (uint lastBidAmount) {\n    if (bidsPtr == 0) return 0;\n    else return bids[bidsPtr-1].amount;\n  }\n\n  function getTotalBidded() constant public returns (uint totalBidded) {\n    return total;\n  }\n\n  function isBidFinal() constant public returns (bool isFinal) {\n    if (bidsPtr <= 1) return false;\n    return ((bids[bidsPtr-1].time - bids[bidsPtr-2].time) > interval);\n  }\n\n  function getTimeOfLastBid() constant public returns (uint time) {\n    if (bidsPtr == 0) return now;\n    return bids[bidsPtr-1].time;\n  }\n\n  function getMinBid() constant public returns (uint minimumBid) {\n    return minBid;\n  }\n\n  function () public payable {\n    revert();\n  }\n\n}\n",
  "sourcePath": "/home/andy/DollarAuctionSolidity/contracts/DollarAuction.sol",
  "compiler": {
    "name": "solc",
    "version": "0.4.19+commit.c4cbbb05.Emscripten.clang"
  },
  "schemaVersion": "1.0.1",
  "updatedAt": "2018-02-16T08:46:21.221Z"
}