{
  "contractName": "DollarAuction",
  "abi": [
    {
      "constant": false,
      "inputs": [],
      "name": "bid",
      "outputs": [
        {
          "name": "success",
          "type": "bool"
        }
      ],
      "payable": true,
      "stateMutability": "payable",
      "type": "function"
    },
    {
      "constant": true,
      "inputs": [],
      "name": "getTimeOfLastBid",
      "outputs": [
        {
          "name": "time",
          "type": "uint256"
        }
      ],
      "payable": false,
      "stateMutability": "view",
      "type": "function"
    },
    {
      "constant": true,
      "inputs": [],
      "name": "getTotalBidded",
      "outputs": [
        {
          "name": "totalBidded",
          "type": "uint256"
        }
      ],
      "payable": false,
      "stateMutability": "view",
      "type": "function"
    },
    {
      "constant": true,
      "inputs": [],
      "name": "getMinBid",
      "outputs": [
        {
          "name": "bid",
          "type": "uint256"
        }
      ],
      "payable": false,
      "stateMutability": "view",
      "type": "function"
    },
    {
      "constant": true,
      "inputs": [],
      "name": "getLastBidAmount",
      "outputs": [
        {
          "name": "lastBidAmount",
          "type": "uint256"
        }
      ],
      "payable": false,
      "stateMutability": "view",
      "type": "function"
    },
    {
      "constant": true,
      "inputs": [],
      "name": "getArray",
      "outputs": [
        {
          "name": "array",
          "type": "uint256[3]"
        }
      ],
      "payable": false,
      "stateMutability": "view",
      "type": "function"
    },
    {
      "constant": true,
      "inputs": [],
      "name": "isBidFinal",
      "outputs": [
        {
          "name": "isFinal",
          "type": "bool"
        }
      ],
      "payable": false,
      "stateMutability": "view",
      "type": "function"
    },
    {
      "payable": true,
      "stateMutability": "payable",
      "type": "fallback"
    },
    {
      "anonymous": false,
      "inputs": [
        {
          "indexed": false,
          "name": "accountAddress",
          "type": "address"
        },
        {
          "indexed": false,
          "name": "amount",
          "type": "uint256"
        },
        {
          "indexed": false,
          "name": "time",
          "type": "uint256"
        }
      ],
      "name": "LogBidMade",
      "type": "event"
    },
    {
      "anonymous": false,
      "inputs": [
        {
          "indexed": false,
          "name": "accountAddress",
          "type": "address"
        },
        {
          "indexed": false,
          "name": "amount",
          "type": "uint256"
        },
        {
          "indexed": false,
          "name": "time",
          "type": "uint256"
        }
      ],
      "name": "LogBidFailed",
      "type": "event"
    },
    {
      "anonymous": false,
      "inputs": [
        {
          "indexed": false,
          "name": "accountAddress",
          "type": "address"
        },
        {
          "indexed": false,
          "name": "amount",
          "type": "uint256"
        },
        {
          "indexed": false,
          "name": "time",
          "type": "uint256"
        },
        {
          "indexed": false,
          "name": "profit",
          "type": "uint256"
        }
      ],
      "name": "LogBidFinal",
      "type": "event"
    },
    {
      "anonymous": false,
      "inputs": [
        {
          "indexed": false,
          "name": "accountAddress",
          "type": "address"
        },
        {
          "indexed": false,
          "name": "amount",
          "type": "uint256"
        },
        {
          "indexed": false,
          "name": "time",
          "type": "uint256"
        }
      ],
      "name": "LogBidReturned",
      "type": "event"
    }
  ],
  "bytecode": "0x6060604052603c6001556001600255670de0b6b3a7640000600355341561002557600080fd5b610797806100346000396000f300606060405260043610610083576000357c0100000000000000000000000000000000000000000000000000000000900463ffffffff1680631998aeef1461008857806324f073ad146100aa578063288dd331146100d35780638cb39385146100fc578063a283c9c514610125578063d504ea1d1461014e578063ee7c17861461019f575b600080fd5b6100906101cc565b604051808215151515815260200191505060405180910390f35b34156100b557600080fd5b6100bd610366565b6040518082815260200191505060405180910390f35b34156100de57600080fd5b6100e66103ac565b6040518082815260200191505060405180910390f35b341561010757600080fd5b61010f610400565b6040518082815260200191505060405180910390f35b341561013057600080fd5b61013861040a565b6040518082815260200191505060405180910390f35b341561015957600080fd5b610161610451565b6040518082600360200280838360005b8381101561018c578082015181840152602081019050610171565b5050505090500191505060405180910390f35b34156101aa57600080fd5b6101b26104e1565b604051808215151515815260200191505060405180910390f35b60008060008060006101dc61065f565b3494506101e761040a565b9350339250429150600354851115156101ff57600080fd5b60025484018511151561021157600080fd5b6060604051908101604052808473ffffffffffffffffffffffffffffffffffffffff168152602001868152602001428152509050600080548060010182816102599190610697565b9160005260206000209060030201600083909190915060008201518160000160006101000a81548173ffffffffffffffffffffffffffffffffffffffff021916908373ffffffffffffffffffffffffffffffffffffffff16021790555060208201518160010155604082015181600201555050507f2910f1595943b843bea5ba03a84c2f17f57ad59fbf676336dd22c9cc17bacae2838684604051808473ffffffffffffffffffffffffffffffffffffffff1673ffffffffffffffffffffffffffffffffffffffff168152602001838152602001828152602001935050505060405180910390a16103486104e1565b1561035a57610358838684610558565b505b60019550505050505090565b600080600080549050141561037d574290506103a9565b600060016000805490500381548110151561039457fe5b90600052602060002090600302016002015490505b90565b6000806000809150600090505b6000805490508110156103f8576000818154811015156103d557fe5b9060005260206000209060030201600101548201915080806001019150506103b9565b819250505090565b6000600354905090565b6000806000805490501415610422576000905061044e565b600060016000805490500381548110151561043957fe5b90600052602060002090600302016001015490505b90565b6104596106c9565b60016004600060038110151561046b57fe5b018190555060026004600160038110151561048257fe5b018190555060036004600260038110151561049957fe5b018190555060046003806020026040519081016040528092919082600380156104d7576020028201915b8154815260200190600101908083116104c3575b5050505050905090565b600060016000805490501115156104fb5760009050610555565b600154600060026000805490500381548110151561051557fe5b906000526020600020906003020160020154600060016000805490500381548110151561053e57fe5b906000526020600020906003020160020154031190505b90565b6000803073ffffffffffffffffffffffffffffffffffffffff163190508473ffffffffffffffffffffffffffffffffffffffff166108fc829081150290604051600060405180830381858888f1935050505015156105b557600080fd5b7ff9fafb59f776e1d72234f8e07f9c3586cf72cd6078c50b636dae414922d3752c8585853073ffffffffffffffffffffffffffffffffffffffff1631604051808573ffffffffffffffffffffffffffffffffffffffff1673ffffffffffffffffffffffffffffffffffffffff16815260200184815260200183815260200182815260200194505050505060405180910390a160008061065491906106f1565b809150509392505050565b606060405190810160405280600073ffffffffffffffffffffffffffffffffffffffff16815260200160008152602001600081525090565b8154818355818115116106c4576003028160030283600052602060002091820191016106c39190610715565b5b505050565b6060604051908101604052806003905b60008152602001906001900390816106d95790505090565b50805460008255600302906000526020600020908101906107129190610715565b50565b61076891905b8082111561076457600080820160006101000a81549073ffffffffffffffffffffffffffffffffffffffff0219169055600182016000905560028201600090555060030161071b565b5090565b905600a165627a7a7230582047a14626b9aff9d046b8b0af3321ab4c0139d9fc540508766ef599cfd070c13f0029",
  "source": "pragma solidity ^0.4.17;\n\ncontract DollarAuction {\n\n  struct Bid {\n    address sender;\n    uint amount;\n    uint time;\n  }\n\n  Bid[] bids;\n  uint interval = 60;\n  uint step = 1;\n  uint minBid = 1000000000000000000;\n  uint[3] myArr;\n\n  event LogBidMade(address accountAddress, uint amount, uint time);\n  event LogBidFailed(address accountAddress, uint amount, uint time);\n  event LogBidFinal(address accountAddress, uint amount, uint time, uint profit);\n  event LogBidReturned(address accountAddress, uint amount, uint time);\n\n  function bid() public payable returns (bool success) {\n      uint amount = msg.value;\n      uint lastBidAmount = getLastBidAmount();\n      address sender = msg.sender;\n      uint time = now;\n      require(amount > minBid);\n      require(amount > (lastBidAmount + step));\n      Bid memory submitted_bid = Bid({time: now, sender: sender, amount: amount});\n      bids.push(submitted_bid);\n      LogBidMade(sender, amount, time);\n      if (isBidFinal()) payout(sender, amount, time);\n      return true;\n  }\n\n  function payout(address sender, uint amount, uint time) private returns (uint payout) {\n    uint balance = this.balance;\n    sender.transfer(balance);\n    LogBidFinal(sender, amount, time, this.balance);\n    delete bids;\n    return balance;\n  }\n\n  function getLastBidAmount() constant public returns (uint lastBidAmount) {\n    if (bids.length == 0) return 0;\n    else return bids[bids.length-1].amount;\n  }\n\n  function getTotalBidded() constant public returns (uint totalBidded) {\n    uint total = 0;\n    for (uint i = 0; i < bids.length; i++) {\n      total += bids[i].amount;\n    }\n    return total;\n  }\n\n  function isBidFinal() constant public returns (bool isFinal) {\n    if (bids.length <= 1) return false;\n    return ((bids[bids.length-1].time - bids[bids.length-2].time) > interval);\n  }\n\n  function getTimeOfLastBid() constant public returns (uint time) {\n    if (bids.length == 0) return now;\n    return bids[bids.length-1].time;\n  }\n\n  function getMinBid() constant public returns (uint bid) {\n    return minBid;\n  }\n\n  function getArray() constant public returns (uint256[3] array) {\n    myArr[0] = 1;\n    myArr[1] = 2;\n    myArr[2] = 3;\n    return myArr;\n  }\n\n  function () public payable {\n    revert();\n  }\n\n}\n",
  "sourcePath": "/home/anders/DollarAuction/contracts/DollarAuction.sol",
  "compiler": {
    "name": "solc",
    "version": "0.4.18+commit.9cf6e910.Emscripten.clang"
  },
  "schemaVersion": "1.0.1",
  "updatedAt": "2018-01-28T12:43:44.971Z"
}