{
  "contractName": "Hellhole",
  "abi": [
    {
      "constant": true,
      "inputs": [],
      "name": "end_time",
      "outputs": [
        {
          "name": "",
          "type": "uint256"
        }
      ],
      "payable": false,
      "stateMutability": "view",
      "type": "function"
    },
    {
      "constant": true,
      "inputs": [
        {
          "name": "",
          "type": "uint256"
        }
      ],
      "name": "payouts",
      "outputs": [
        {
          "name": "sender",
          "type": "address"
        },
        {
          "name": "amount",
          "type": "uint256"
        },
        {
          "name": "paid",
          "type": "bool"
        }
      ],
      "payable": false,
      "stateMutability": "view",
      "type": "function"
    },
    {
      "constant": false,
      "inputs": [],
      "name": "withdraw",
      "outputs": [],
      "payable": false,
      "stateMutability": "nonpayable",
      "type": "function"
    },
    {
      "constant": true,
      "inputs": [],
      "name": "pot",
      "outputs": [
        {
          "name": "",
          "type": "uint256"
        }
      ],
      "payable": false,
      "stateMutability": "view",
      "type": "function"
    },
    {
      "constant": true,
      "inputs": [],
      "name": "next_payout_pointer",
      "outputs": [
        {
          "name": "",
          "type": "uint256"
        }
      ],
      "payable": false,
      "stateMutability": "view",
      "type": "function"
    },
    {
      "constant": false,
      "inputs": [],
      "name": "click",
      "outputs": [],
      "payable": true,
      "stateMutability": "payable",
      "type": "function"
    },
    {
      "inputs": [],
      "payable": true,
      "stateMutability": "payable",
      "type": "constructor"
    }
  ],
  "bytecode": "0x6060604052600061012c55600061012e5562015180420161012d819055503461012e600082825401925050819055506104ec8061003d6000396000f300606060405260043610610078576000357c0100000000000000000000000000000000000000000000000000000000900463ffffffff168063162433561461007d57806329652e86146100a65780633ccfd60b1461011b5780634ba2363a1461013057806360c94437146101595780637d55923d14610182575b600080fd5b341561008857600080fd5b61009061018c565b6040518082815260200191505060405180910390f35b34156100b157600080fd5b6100c76004808035906020019091905050610193565b604051808473ffffffffffffffffffffffffffffffffffffffff1673ffffffffffffffffffffffffffffffffffffffff16815260200183815260200182151515158152602001935050505060405180910390f35b341561012657600080fd5b61012e6101ef565b005b341561013b57600080fd5b610143610391565b6040518082815260200191505060405180910390f35b341561016457600080fd5b61016c610398565b6040518082815260200191505060405180910390f35b61018a61039f565b005b61012d5481565b6000816064811015156101a257fe5b600302016000915090508060000160009054906101000a900473ffffffffffffffffffffffffffffffffffffffff16908060010154908060020160009054906101000a900460ff16905083565b60008060008061012d544211151561020657600080fd5b6000935060009250600091505b60648260ff1610156103385760008260ff1660648110151561023157fe5b60030201600101548401935060008260ff1660648110151561024f57fe5b6003020160020160009054906101000a900460ff161580156102d557503373ffffffffffffffffffffffffffffffffffffffff1660008360ff1660648110151561029557fe5b6003020160000160009054906101000a900473ffffffffffffffffffffffffffffffffffffffff1673ffffffffffffffffffffffffffffffffffffffff16145b1561032b5760008260ff166064811015156102ec57fe5b600302016001015483019250600160008360ff1660648110151561030c57fe5b6003020160020160006101000a81548160ff0219169083151502179055505b8180600101925050610213565b838381151561034357fe5b0461012e540290503373ffffffffffffffffffffffffffffffffffffffff166108fc829081150290604051600060405180830381858888f19350505050151561038b57600080fd5b50505050565b61012e5481565b61012c5481565b61012d5442111515156103b157600080fd5b66038d7ea4c6800034101515156103c757600080fd5b62015180420161012d819055503461012e600082825401925050819055506060604051908101604052803373ffffffffffffffffffffffffffffffffffffffff16815260200134815260200160001515815250600061012c5460648110151561042c57fe5b6003020160008201518160000160006101000a81548173ffffffffffffffffffffffffffffffffffffffff021916908373ffffffffffffffffffffffffffffffffffffffff1602179055506020820151816001015560408201518160020160006101000a81548160ff0219169083151502179055509050506064600161012c54018115156104b657fe5b0661012c819055505600a165627a7a7230582061f634326a6685a03125f88eec8b61e0b0234fefe80151ae6e797500899c3b9e0029",
  "source": "pragma solidity ^0.4.17;\n\ncontract Hellhole {\n    uint constant minimum_click_amount = 1 finney;\n    uint constant last_n_payouts = 100;\n    uint constant click_time_extension = 24 hours;\n\n    struct Click {\n        address sender;\n        uint amount;\n        bool paid;\n    }\n\n    Click[100] public payouts;\n    uint public next_payout_pointer = 0;\n    uint public end_time;\n    uint public pot = 0;\n\n\n    function Hellhole() public payable {\n        end_time = now + click_time_extension;\n        //Summon Moloch with a sacrifice of money\n        pot += msg.value;\n    }\n\n    function click() public payable {\n        require(now <= end_time);\n        require(msg.value >= minimum_click_amount);\n\n        end_time = now + click_time_extension;\n        pot += msg.value;\n\n        payouts[next_payout_pointer] = Click({\n            sender: msg.sender,\n            amount: msg.value,\n            paid: false\n        });\n        next_payout_pointer = (next_payout_pointer + 1) % last_n_payouts;\n    }\n\n    function withdraw() public {\n        require(now > end_time);\n        uint lastSendersTotal = 0;\n        uint senderAmount = 0;\n        for(uint8 i = 0; i < last_n_payouts; i++){\n            lastSendersTotal += payouts[i].amount;\n            if(!payouts[i].paid && payouts[i].sender == msg.sender){\n                senderAmount += payouts[i].amount;\n                payouts[i].paid = true;\n            }\n        }\n        uint winnings = pot * (senderAmount / lastSendersTotal);\n        msg.sender.transfer(winnings);\n    }\n}\n",
  "sourcePath": "/home/anders/DollarAuction/contracts/Hellcoin.sol",
  "compiler": {
    "name": "solc",
    "version": "0.4.18+commit.9cf6e910.Emscripten.clang"
  },
  "schemaVersion": "1.0.1",
  "updatedAt": "2018-01-28T12:39:20.823Z"
}