{
  "contractName": "PennyAuction",
  "abi": [
    {
      "constant": false,
      "inputs": [],
      "name": "bid",
      "outputs": [
        {
          "name": "success",
          "type": "bool"
        }
      ],
      "payable": true,
      "stateMutability": "payable",
      "type": "function"
    },
    {
      "constant": true,
      "inputs": [],
      "name": "getTimeOfLastBid",
      "outputs": [
        {
          "name": "time",
          "type": "uint256"
        }
      ],
      "payable": false,
      "stateMutability": "view",
      "type": "function"
    },
    {
      "constant": true,
      "inputs": [],
      "name": "getTotalBidded",
      "outputs": [
        {
          "name": "totalBidded",
          "type": "uint256"
        }
      ],
      "payable": false,
      "stateMutability": "view",
      "type": "function"
    },
    {
      "constant": true,
      "inputs": [],
      "name": "getMinBid",
      "outputs": [
        {
          "name": "minBid",
          "type": "uint256"
        }
      ],
      "payable": false,
      "stateMutability": "view",
      "type": "function"
    },
    {
      "constant": true,
      "inputs": [],
      "name": "getLastBidAmount",
      "outputs": [
        {
          "name": "lastBidAmount",
          "type": "uint256"
        }
      ],
      "payable": false,
      "stateMutability": "view",
      "type": "function"
    },
    {
      "constant": true,
      "inputs": [],
      "name": "isBidFinal",
      "outputs": [
        {
          "name": "isFinal",
          "type": "bool"
        }
      ],
      "payable": false,
      "stateMutability": "view",
      "type": "function"
    },
    {
      "payable": true,
      "stateMutability": "payable",
      "type": "fallback"
    },
    {
      "anonymous": false,
      "inputs": [
        {
          "indexed": false,
          "name": "accountAddress",
          "type": "address"
        },
        {
          "indexed": false,
          "name": "amount",
          "type": "uint256"
        },
        {
          "indexed": false,
          "name": "time",
          "type": "uint256"
        }
      ],
      "name": "LogBidMade",
      "type": "event"
    },
    {
      "anonymous": false,
      "inputs": [
        {
          "indexed": false,
          "name": "accountAddress",
          "type": "address"
        },
        {
          "indexed": false,
          "name": "amount",
          "type": "uint256"
        },
        {
          "indexed": false,
          "name": "time",
          "type": "uint256"
        }
      ],
      "name": "LogBidFailed",
      "type": "event"
    },
    {
      "anonymous": false,
      "inputs": [
        {
          "indexed": false,
          "name": "accountAddress",
          "type": "address"
        },
        {
          "indexed": false,
          "name": "amount",
          "type": "uint256"
        },
        {
          "indexed": false,
          "name": "time",
          "type": "uint256"
        },
        {
          "indexed": false,
          "name": "profit",
          "type": "uint256"
        }
      ],
      "name": "LogBidFinal",
      "type": "event"
    },
    {
      "anonymous": false,
      "inputs": [
        {
          "indexed": false,
          "name": "accountAddress",
          "type": "address"
        },
        {
          "indexed": false,
          "name": "amount",
          "type": "uint256"
        },
        {
          "indexed": false,
          "name": "time",
          "type": "uint256"
        }
      ],
      "name": "LogBidReturned",
      "type": "event"
    }
  ],
  "bytecode": "0x6060604052603c6001556001600255670de0b6b3a7640000600355341561002557600080fd5b610681806100346000396000f300606060405260043610610078576000357c0100000000000000000000000000000000000000000000000000000000900463ffffffff1680631998aeef1461007d57806324f073ad1461009f578063288dd331146100c85780638cb39385146100f1578063a283c9c51461011a578063ee7c178614610143575b600080fd5b610085610170565b604051808215151515815260200191505060405180910390f35b34156100aa57600080fd5b6100b261030a565b6040518082815260200191505060405180910390f35b34156100d357600080fd5b6100db610350565b6040518082815260200191505060405180910390f35b34156100fc57600080fd5b6101046103a4565b6040518082815260200191505060405180910390f35b341561012557600080fd5b61012d6103ac565b6040518082815260200191505060405180910390f35b341561014e57600080fd5b6101566103f3565b604051808215151515815260200191505060405180910390f35b6000806000806000610180610571565b34945061018b6103ac565b9350339250429150600354851115156101a357600080fd5b6002548401851115156101b557600080fd5b6060604051908101604052808473ffffffffffffffffffffffffffffffffffffffff168152602001868152602001428152509050600080548060010182816101fd91906105a9565b9160005260206000209060030201600083909190915060008201518160000160006101000a81548173ffffffffffffffffffffffffffffffffffffffff021916908373ffffffffffffffffffffffffffffffffffffffff16021790555060208201518160010155604082015181600201555050507f2910f1595943b843bea5ba03a84c2f17f57ad59fbf676336dd22c9cc17bacae2838684604051808473ffffffffffffffffffffffffffffffffffffffff1673ffffffffffffffffffffffffffffffffffffffff168152602001838152602001828152602001935050505060405180910390a16102ec6103f3565b156102fe576102fc83868461046a565b505b60019550505050505090565b60008060008054905014156103215742905061034d565b600060016000805490500381548110151561033857fe5b90600052602060002090600302016002015490505b90565b6000806000809150600090505b60008054905081101561039c5760008181548110151561037957fe5b90600052602060002090600302016001015482019150808060010191505061035d565b819250505090565b600080905090565b60008060008054905014156103c457600090506103f0565b60006001600080549050038154811015156103db57fe5b90600052602060002090600302016001015490505b90565b6000600160008054905011151561040d5760009050610467565b600154600060026000805490500381548110151561042757fe5b906000526020600020906003020160020154600060016000805490500381548110151561045057fe5b906000526020600020906003020160020154031190505b90565b6000803073ffffffffffffffffffffffffffffffffffffffff163190508473ffffffffffffffffffffffffffffffffffffffff166108fc829081150290604051600060405180830381858888f1935050505015156104c757600080fd5b7ff9fafb59f776e1d72234f8e07f9c3586cf72cd6078c50b636dae414922d3752c8585853073ffffffffffffffffffffffffffffffffffffffff1631604051808573ffffffffffffffffffffffffffffffffffffffff1673ffffffffffffffffffffffffffffffffffffffff16815260200184815260200183815260200182815260200194505050505060405180910390a160008061056691906105db565b809150509392505050565b606060405190810160405280600073ffffffffffffffffffffffffffffffffffffffff16815260200160008152602001600081525090565b8154818355818115116105d6576003028160030283600052602060002091820191016105d591906105ff565b5b505050565b50805460008255600302906000526020600020908101906105fc91906105ff565b50565b61065291905b8082111561064e57600080820160006101000a81549073ffffffffffffffffffffffffffffffffffffffff02191690556001820160009055600282016000905550600301610605565b5090565b905600a165627a7a72305820be5cf4eb5e0653dcdbe0848523888d0e0cccf5e2a2f82d84bed1bd51c29f36660029",
  "source": "pragma solidity ^0.4.17;\n\ncontract PennyAuction {\n\n  struct Bid {\n    address sender;\n    uint amount;\n    uint time;\n  }\n\n  Bid[] bids;\n  uint interval = 60;\n  uint step = 1;\n  uint minBid = 1000000000000000000;\n\n  event LogBidMade(address accountAddress, uint amount, uint time);\n  event LogBidFailed(address accountAddress, uint amount, uint time);\n  event LogBidFinal(address accountAddress, uint amount, uint time, uint profit);\n  event LogBidReturned(address accountAddress, uint amount, uint time);\n\n  function bid() public payable returns (bool success) {\n      uint amount = msg.value;\n      uint lastBidAmount = getLastBidAmount();\n      address sender = msg.sender;\n      uint time = now;\n      require(amount > minBid);\n      require(amount > (lastBidAmount + step));\n      Bid memory submitted_bid = Bid({time: now, sender: sender, amount: amount});\n      bids.push(submitted_bid);\n      LogBidMade(sender, amount, time);\n      if (isBidFinal()) payout(sender, amount, time);\n      return true;\n  }\n\n  function payout(address sender, uint amount, uint time) private returns (uint payout) {\n    uint balance = this.balance;\n    sender.transfer(balance);\n    LogBidFinal(sender, amount, time, this.balance);\n    delete bids;\n    return balance;\n  }\n\n  function getLastBidAmount() constant public returns (uint lastBidAmount) {\n    if (bids.length == 0) return 0;\n    else return bids[bids.length-1].amount;\n  }\n\n  function getTotalBidded() constant public returns (uint totalBidded) {\n    uint total = 0;\n    for (uint i = 0; i < bids.length; i++) {\n      total += bids[i].amount;\n    }\n    return total;\n  }\n\n  function isBidFinal() constant public returns (bool isFinal) {\n    if (bids.length <= 1) return false;\n    return ((bids[bids.length-1].time - bids[bids.length-2].time) > interval);\n  }\n\n  function getTimeOfLastBid() constant public returns (uint time) {\n    if (bids.length == 0) return now;\n    return bids[bids.length-1].time;\n  }\n\n  function getMinBid() constant public returns (uint minBid) {\n    return minBid;\n  }\n\n  function () public payable {\n    revert();\n  }\n\n}\n",
  "sourcePath": "/home/anders/solstar/contracts/PennyAuction.sol",
  "compiler": {
    "name": "solc",
    "version": "0.4.18+commit.9cf6e910.Emscripten.clang"
  },
  "schemaVersion": "1.0.1",
  "updatedAt": "2018-01-28T09:03:25.563Z"
}