{
  "contractName": "PennyAuction",
  "abi": [
    {
      "constant": false,
      "inputs": [],
      "name": "bid",
      "outputs": [
        {
          "name": "success",
          "type": "bool"
        }
      ],
      "payable": true,
      "stateMutability": "payable",
      "type": "function"
    },
    {
      "constant": true,
      "inputs": [],
      "name": "getTimeOfLastBid",
      "outputs": [
        {
          "name": "time",
          "type": "uint256"
        }
      ],
      "payable": false,
      "stateMutability": "view",
      "type": "function"
    },
    {
      "constant": true,
      "inputs": [],
      "name": "getTotalBidded",
      "outputs": [
        {
          "name": "totalBidded",
          "type": "uint256"
        }
      ],
      "payable": false,
      "stateMutability": "view",
      "type": "function"
    },
    {
      "constant": true,
      "inputs": [],
      "name": "getLastBidAmount",
      "outputs": [
        {
          "name": "lastBidAmount",
          "type": "uint256"
        }
      ],
      "payable": false,
      "stateMutability": "view",
      "type": "function"
    },
    {
      "constant": true,
      "inputs": [],
      "name": "isBidFinal",
      "outputs": [
        {
          "name": "isFinal",
          "type": "bool"
        }
      ],
      "payable": false,
      "stateMutability": "view",
      "type": "function"
    },
    {
      "payable": true,
      "stateMutability": "payable",
      "type": "fallback"
    },
    {
      "anonymous": false,
      "inputs": [
        {
          "indexed": false,
          "name": "accountAddress",
          "type": "address"
        },
        {
          "indexed": false,
          "name": "amount",
          "type": "uint256"
        },
        {
          "indexed": false,
          "name": "time",
          "type": "uint256"
        }
      ],
      "name": "LogBidMade",
      "type": "event"
    },
    {
      "anonymous": false,
      "inputs": [
        {
          "indexed": false,
          "name": "accountAddress",
          "type": "address"
        },
        {
          "indexed": false,
          "name": "amount",
          "type": "uint256"
        },
        {
          "indexed": false,
          "name": "time",
          "type": "uint256"
        }
      ],
      "name": "LogBidFailed",
      "type": "event"
    },
    {
      "anonymous": false,
      "inputs": [
        {
          "indexed": false,
          "name": "accountAddress",
          "type": "address"
        },
        {
          "indexed": false,
          "name": "amount",
          "type": "uint256"
        },
        {
          "indexed": false,
          "name": "time",
          "type": "uint256"
        },
        {
          "indexed": false,
          "name": "profit",
          "type": "uint256"
        }
      ],
      "name": "LogBidFinal",
      "type": "event"
    },
    {
      "anonymous": false,
      "inputs": [
        {
          "indexed": false,
          "name": "accountAddress",
          "type": "address"
        },
        {
          "indexed": false,
          "name": "amount",
          "type": "uint256"
        },
        {
          "indexed": false,
          "name": "time",
          "type": "uint256"
        }
      ],
      "name": "LogBidReturned",
      "type": "event"
    }
  ],
  "bytecode": "0x6060604052603c6001556103e8600255341561001a57600080fd5b610732806100296000396000f30060606040526004361061006d576000357c0100000000000000000000000000000000000000000000000000000000900463ffffffff1680631998aeef1461007257806324f073ad14610094578063288dd331146100bd578063a283c9c5146100e6578063ee7c17861461010f575b600080fd5b61007a61013c565b604051808215151515815260200191505060405180910390f35b341561009f57600080fd5b6100a76104ca565b6040518082815260200191505060405180910390f35b34156100c857600080fd5b6100d0610510565b6040518082815260200191505060405180910390f35b34156100f157600080fd5b6100f9610564565b6040518082815260200191505060405180910390f35b341561011a57600080fd5b6101226105ab565b604051808215151515815260200191505060405180910390f35b600080600080600061014c610622565b349450610157610564565b93503392504291508385111515610297577f590a1c78826ab27d729a3f3c933ce38d20c32929b9abf1060a18ce6800941672838684604051808473ffffffffffffffffffffffffffffffffffffffff1673ffffffffffffffffffffffffffffffffffffffff168152602001838152602001828152602001935050505060405180910390a18273ffffffffffffffffffffffffffffffffffffffff166108fc869081150290604051600060405180830381858888f19350505050151561021b57600080fd5b7f117328b9242d24b1640147ef841456f2e893a4b83e5bb309f9fe8537d6a87189838684604051808473ffffffffffffffffffffffffffffffffffffffff1673ffffffffffffffffffffffffffffffffffffffff168152602001838152602001828152602001935050505060405180910390a1600095506104c2565b6060604051908101604052808473ffffffffffffffffffffffffffffffffffffffff168152602001868152602001428152509050600080548060010182816102df919061065a565b9160005260206000209060030201600083909190915060008201518160000160006101000a81548173ffffffffffffffffffffffffffffffffffffffff021916908373ffffffffffffffffffffffffffffffffffffffff16021790555060208201518160010155604082015181600201555050507f2910f1595943b843bea5ba03a84c2f17f57ad59fbf676336dd22c9cc17bacae2838684604051808473ffffffffffffffffffffffffffffffffffffffff1673ffffffffffffffffffffffffffffffffffffffff168152602001838152602001828152602001935050505060405180910390a16103ce6105ab565b156104bd578273ffffffffffffffffffffffffffffffffffffffff166108fc3073ffffffffffffffffffffffffffffffffffffffff16319081150290604051600060405180830381858888f19350505050151561042a57600080fd5b7ff9fafb59f776e1d72234f8e07f9c3586cf72cd6078c50b636dae414922d3752c838684600254604051808573ffffffffffffffffffffffffffffffffffffffff1673ffffffffffffffffffffffffffffffffffffffff16815260200184815260200183815260200182815260200194505050505060405180910390a16000806104b4919061068c565b600195506104c2565b600195505b505050505090565b60008060008054905014156104e15742905061050d565b60006001600080549050038154811015156104f857fe5b90600052602060002090600302016002015490505b90565b6000806000809150600090505b60008054905081101561055c5760008181548110151561053957fe5b90600052602060002090600302016001015482019150808060010191505061051d565b819250505090565b600080600080549050141561057c57600090506105a8565b600060016000805490500381548110151561059357fe5b90600052602060002090600302016001015490505b90565b600060016000805490501115156105c5576000905061061f565b60015460006002600080549050038154811015156105df57fe5b906000526020600020906003020160020154600060016000805490500381548110151561060857fe5b906000526020600020906003020160020154031190505b90565b606060405190810160405280600073ffffffffffffffffffffffffffffffffffffffff16815260200160008152602001600081525090565b8154818355818115116106875760030281600302836000526020600020918201910161068691906106b0565b5b505050565b50805460008255600302906000526020600020908101906106ad91906106b0565b50565b61070391905b808211156106ff57600080820160006101000a81549073ffffffffffffffffffffffffffffffffffffffff021916905560018201600090556002820160009055506003016106b6565b5090565b905600a165627a7a7230582020c8d6f1ae0ffe65be11a5e8068b824ba5590e994ab45a57fb8d7134899a14c10029",
  "source": "pragma solidity ^0.4.17;\n\ncontract PennyAuction {\n\n  struct Bid {\n    address sender;\n    uint amount;\n    uint time;\n  }\n\n  Bid[] bids;\n  uint interval = 60;\n  uint profit = 1000;\n\n  event LogBidMade(address accountAddress, uint amount, uint time);\n  event LogBidFailed(address accountAddress, uint amount, uint time);\n  event LogBidFinal(address accountAddress, uint amount, uint time, uint profit);\n  event LogBidReturned(address accountAddress, uint amount, uint time);\n\n  function bid() public payable returns (bool success) {\n      uint amount = msg.value;\n      uint lastBidAmount = getLastBidAmount();\n      address sender = msg.sender;\n      uint time = now;\n      if (amount <= lastBidAmount) {\n        LogBidFailed(sender, amount, time);\n        sender.transfer(amount);\n        LogBidReturned(sender, amount, time);\n        return false;\n      }\n      Bid memory submitted_bid = Bid({time: now, sender: sender, amount: amount});\n      bids.push(submitted_bid);\n      LogBidMade(sender, amount, time);\n      if (isBidFinal()) {\n        sender.transfer(this.balance);\n        LogBidFinal(sender, amount, time, profit);\n        delete bids;\n        return true;\n      }\n      else return true;\n  }\n\n  function getLastBidAmount() constant public returns (uint lastBidAmount) {\n    if (bids.length == 0) return 0;\n    else return bids[bids.length-1].amount;\n  }\n\n  function getTotalBidded() constant public returns (uint totalBidded) {\n    uint total = 0;\n    for (uint i = 0; i < bids.length; i++) {\n      total += bids[i].amount;\n    }\n    return total;\n  }\n\n  function isBidFinal() constant public returns (bool isFinal) {\n    if (bids.length <= 1) return false;\n    return ((bids[bids.length-1].time - bids[bids.length-2].time) > interval);\n  }\n\n  function getTimeOfLastBid() constant public returns (uint time) {\n    if (bids.length == 0) return now;\n    return bids[bids.length-1].time;\n  }\n\n  function () public payable {\n    revert();\n  }\n\n}\n",
  "sourcePath": "/home/anders/solstar/contracts/PennyAuction.sol",
  "compiler": {
    "name": "solc",
    "version": "0.4.18+commit.9cf6e910.Emscripten.clang"
  },
  "schemaVersion": "1.0.1",
  "updatedAt": "2018-01-27T18:21:55.494Z"
}